:100000000C9462000C948A000C948A000C948A0070
:100010000C948A000C948A000C948A000C949A0523
:100020000C948A000C948A000C948A000C94DE04D0
:100030000C948A000C948A000C948A000C948A0018
:100040000C9494040C948A000C9462040C943C0468
:100050000C948A000C948A000C948A000C948A00F8
:100060000C948A000C948A00000000080002010031
:100070000003040700000000000000000000000072
:10008000240027002A000000000023002600290089
:1000900000000000250028002B00040404040404D0
:1000A0000404020202020202030303030303010227
:1000B00004081020408001020408102001020408F6
:1000C0001020D70511241FBECFEFD8E0DEBFCDBF73
:1000D00011E0A0E0B1E0E8E5F4E102C005900D9286
:1000E000AA32B107D9F722E0AAE2B1E001C01D921D
:1000F000AB31B207E1F710E0C2E6D0E004C02197CF
:10010000FE010E94240AC136D107C9F70E94D80611
:100110000C942A0A0C940000CF92DF92EF92FF9287
:10012000DC01A03282E0B807D4F5A53BB10514F09C
:10013000A4EBB0E04091FF0128E830E0241B310936
:1001400047FD3395220F331F220F331F6901330FF1
:10015000EE08FF084091000228E532E0241B310937
:1001600047FD3395220F331F220F331F032E000C40
:10017000440B550B2C193D094E095F09B7FF02C00E
:10018000B0E0A0E00E94DF0924EB30E040E050E066
:100190000E94B509C20ED31EE41EF51ED601E091E1
:1001A000FE01EC3080F52091FF0188E890E0821B91
:1001B000910927FD9395880F991F880F991FA817FC
:1001C000B90784F02091000288E592E0821B910932
:1001D00027FD9395880F991F880F991FA817B907B6
:1001E0000CF4CD010297880F991F4FB7F8942E2F6A
:1001F00030E0F901EE0FFF1FE20FF31FE952FE4F4F
:10020000928381834FBFFF90EF90DF90CF9008954E
:10021000AF92BF92CF92DF92EF92FF920F931F9314
:10022000CF93DF936C017B018B01040F151FEB0152
:100230005E01AE18BF08C017D10759F06991D60109
:10024000ED91FC910190F081E02DC6010995892B7B
:1002500079F7C501DF91CF911F910F91FF90EF903A
:10026000DF90CF90BF90AF900895FC01538D448DE7
:10027000252F30E0842F90E0821B930B541710F051
:10028000CF96089501970895FC01918D828D98175E
:1002900061F0A28DAE0FBF2FB11D5D968C91928D36
:1002A0009F5F9F73928F90E008958FEF9FEF089567
:1002B000FC01918D828D981731F0828DE80FF11D30
:1002C000858D90E008958FEF9FEF0895FC01918D4B
:1002D000228D892F90E0805C9F4F821B91098F7344
:1002E000992708958AE391E00E94660121E0892B15
:1002F00009F420E0822F089580E090E0892B29F016
:100300000E94720181110C9400000895FC01A48DDB
:10031000A80FB92FB11DA35ABF4F2C91848D90E027
:1003200001968F739927848FA689B7892C93A0890A
:10033000B1898C91837080648C93938D848D981394
:1003400006C00288F389E02D80818F7D8083089527
:10035000EF92FF920F931F93CF93DF93EC0181E015
:10036000888F9B8D8C8D98131AC0E889F9898081BC
:1003700085FF15C09FB7F894EE89FF896083E889EF
:10038000F98980818370806480839FBF81E090E0E1
:10039000DF91CF911F910F91FF90EF900895F62E6E
:1003A0000B8D10E00F5F1F4F0F731127E02E8C8D08
:1003B0008E110CC00FB607FCFACFE889F98980814D
:1003C00085FFF5CFCE010E948601F1CFEB8DEC0FBA
:1003D000FD2FF11DE35AFF4FF0829FB7F8940B8F6A
:1003E000EA89FB8980818062CFCFCF93DF93EC01D4
:1003F000888D8823B9F0AA89BB89E889F9898C910D
:1004000085FD03C0808186FD0DC00FB607FCF7CFC8
:100410008C9185FFF2CF808185FFEDCFCE010E94C8
:100420008601E9CFDF91CF910895833081F028F4E0
:10043000813099F08230A9F008958730A9F0883092
:10044000C9F08430B1F4809180008F7D03C0809129
:1004500080008F7780938000089584B58F7784BD66
:10046000089584B58F7DFBCF8091B0008F77809306
:10047000B00008958091B0008F7DF9CFCF93DF93C6
:10048000282F30E0F901E859FF4F8491F901E25536
:10049000FF4FD491F901E656FF4FC491CC23A1F050
:1004A00081110E941502EC2FF0E0EE0FFF1FEA57BA
:1004B000FF4FA591B491EC91ED2381E090E009F418
:1004C00080E0DF91CF91089580E090E0FACF1F9314
:1004D000CF93DF93282F30E0F901E859FF4F849143
:1004E000F901E255FF4FD491F901E656FF4FC4914F
:1004F000CC23A9F0162F81110E941502EC2FF0E0F9
:10050000EE0FFF1FE057FF4FA591B4918FB7F894FE
:10051000EC91111108C0D095DE23DC938FBFDF91E1
:10052000CF911F910895DE2BF8CFCF93DF9360E03A
:100530008CE00E94670260E088E00E946702C7E0EA
:10054000D0E060E084E00E9467028091FC0190E0CE
:100550000C2E02C0959587950A94E2F761E080FF22
:1005600060E088E00E94670261E084E00E94670228
:10057000219738F761E08CE0DF91CF910C9467020E
:10058000CF93DF9390E0FC01E255FF4F2491865614
:100590009F4FFC0184918823D1F090E0880F991F30
:1005A000FC01E458FF4FA591B491FC01E057FF4FC7
:1005B000C591D49161110EC09FB7F8948C91E22F30
:1005C000E0958E238C932881E223E8839FBFDF91FF
:1005D000CF9108958FB7F894EC91E22BEC938FBFF5
:1005E000F6CF3FB7F8948091340190913501A091F6
:1005F0003601B091370126B5A89B05C02F3F19F0F1
:100600000196A11DB11D3FBFBA2FA92F982F882792
:10061000BC01CD01620F711D811D911D42E0660F6D
:10062000771F881F991F4A95D1F708958F929F923F
:10063000AF92BF92CF92DF92EF92FF924B015C019B
:100640000E94F1026B017C010E94F1026C197D098C
:100650008E099F09683E734081059105A8F321E04A
:10066000821A9108A108B10888EEC80E83E0D81E4E
:10067000E11CF11C81149104A104B10429F7FF903D
:10068000EF90DF90CF90BF90AF909F908F900895A4
:10069000FC018081823061F018F4813031F00895DE
:1006A000833049F0843049F008956093B300089591
:1006B0006093B400089567BD089568BD0895FC0176
:1006C0008081823069F028F423E092E0813051F09B
:1006D0000895833011F126E090E0843019F00895F8
:1006E00024E091E06230E1F0643079F1613009F0AA
:1006F0003FC041E050E0BA0101C0660F9A95EAF7A9
:100700008091FC01862B01C0440F2A95EAF74095A1
:1007100048234093FC010C94950227E095E0E2CF3A
:1007200041E050E0BA0102C0660F771F9A95E2F7E8
:10073000CB0180959091FC01892301C0440F2A953B
:10074000EAF7842B8093FC01E6CF41E050E0FA0108
:1007500002C0EE0FFF1F9A95E2F7CF0101C0440FD0
:100760002A95EAF7842B80959091FC018923EACFA2
:100770000895FC0101900020E9F73197AF01481B73
:10078000590BBC018AE391E00C9408018F929F926F
:10079000AF92BF920F931F93CF93DF93CDB7DEB786
:1007A000A1970FB6F894DEBF0FBECDBF19A242309D
:1007B00008F44AE08E010F5D1F4F842E912CB12C5E
:1007C000A12CA50194010E94E709E62FB901CA01F5
:1007D000EA30F4F4E05DD801EE938D01232B242B55
:1007E000252B79F790E080E0109719F0CD010E9459
:1007F000B903A1960FB6F894DEBF0FBECDBFDF914F
:10080000CF911F910F91BF90AF909F908F900895BF
:10081000E95CE1CFCF92DF92EF92FF92CF93DF932B
:100820006C01990FEE08FF08F7FE1FC06DE28AE326
:1008300091E00E94A801EC0166277727CB016C1993
:100840007D098E099F094AE00E94C603C80FD91F7F
:1008500082E191E00E94B9038C0F9D1FDF91CF913F
:10086000FF90EF90DF90CF9008954AE0C701B60166
:100870000E94C603EC01ECCF1F920F920FB60F92AD
:1008800011242F933F934F935F936F937F938F9395
:100890009F93AF93BF93EF93FF938AE391E00E94FE
:1008A0008601FF91EF91BF91AF919F918F917F91C1
:1008B0006F915F914F913F912F910F900FBE0F90CD
:1008C0001F9018951F920F920FB60F9211242F931D
:1008D0008F939F93EF93FF93E0914A01F0914B0127
:1008E0008081E0915001F091510182FD1BC0908107
:1008F000809153018F5F8F7320915401821741F0D3
:10090000E0915301F0E0E65CFE4F958F8093530138
:10091000FF91EF919F918F912F910F900FBE0F90AC
:100920001F9018958081F4CF1F920F920FB60F92EF
:1009300011242F933F938F939F93AF93BF938091F5
:10094000300190913101A0913201B0913301309189
:100950002F0123E0230F2D3758F50196A11DB11D5E
:1009600020932F018093300190933101A0933201A5
:10097000B09333018091340190913501A0913601FB
:10098000B09137010196A11DB11D80933401909360
:100990003501A0933601B0933701BF91AF919F917C
:1009A0008F913F912F910F900FBE0F901F90189530
:1009B00026E8230F0296A11DB11DD2CF1F920F92E0
:1009C0000FB60F9211242F933F934F935F936F9322
:1009D0007F938F939F93AF93BF93CF93DF93EF93C7
:1009E000FF9380912E01C091FB01D0E087FF24C0CE
:1009F000109285001092840080912E018F5F809369
:100A00002E0180912E01082E000C990B8C179D074A
:100A100024F480912E018C30C4F180918400909157
:100A20008500049680349C4908F47AC08091840043
:100A300090918500049676C080912E01082E000CBE
:100A4000990B8C179D07C4F6E0912E018E2FEE0FA7
:100A5000990BFC01EE0FFF1FE80FF91FE952FE4F43
:100A6000808186FFC9CFE0912E018E2FEE0F990B6A
:100A7000FC01EE0FFF1FE80FF91FE952FE4F8081C6
:100A800060E08F730E946702B7CF2091840030919D
:100A90008500E0912E018E2FEE0F990BFC01EE0FD9
:100AA000FF1FE80FF91FE952FE4F81819281820FEB
:100AB000931F9093890080938800E0912E018E2FE0
:100AC000EE0F990BFC01EE0FFF1FE80FF91FE95223
:100AD000FE4F808186FF11C0E0912E018E2FEE0F18
:100AE000990BFC01EE0FFF1FE80FF91FE952FE4FB3
:100AF000808161E08F730E946702FF91EF91DF9127
:100B0000CF91BF91AF919F918F917F916F915F91A5
:100B10004F913F912F910F900FBE0F901F901895FE
:100B200080E49CE990938900809388008FEF809304
:100B30002E01E3CF1F920F920FB60F9211242F9325
:100B40003F934F935F936F937F938F939F93AF9355
:100B5000BF93EF93FF93F0E0E0E00995FF91EF91F1
:100B6000BF91AF919F918F917F916F915F914F91C5
:100B70003F912F910F900FBE0F901F90189561E03D
:100B80008CE00E94C00261E087E00E94C00261E048
:100B900088E00E94C00261E084E00E94C0021092DE
:100BA000FC010E94950260E087E00C946702CF93FD
:100BB000DF9310923D0110923C0188EE93E0A0E09B
:100BC000B0E080933E0190933F01A0934001B09329
:100BD000410184E091E090933B0180933A0185ECE0
:100BE00090E0909347018093460184EC90E09093CD
:100BF00049018093480180EC90E090934B018093F1
:100C00004A0181EC90E090934D0180934C0182EC7D
:100C100090E090934F0180934E0186EC90E090938A
:100C2000510180935001109253011092540110927F
:100C30005501109256011092FD01EDEBF0E0E491A8
:100C4000E0930D02ECEBF0E0E491E0930E0289EA10
:100C500090E0FC012491E22FF0E0EE0FFF1FE0573F
:100C6000FF4F259134913093100220930F02E8EA50
:100C7000F0E0E491F0E0EE0FFF1FEA57FF4F2591FF
:100C800034913093120220931102FC018491E82FD9
:100C9000F0E0EE0FFF1FE458FF4F85919491909381
:100CA0001402809313028DE796E1909316028093CD
:100CB000150281E080930702C4E0C09308020E94FD
:100CC000BF058091FC01837F8093FC010E94950207
:100CD0008091B00083688093B000C093B1001092FF
:100CE000B30061E08BE00E94C00282E080930502C5
:100CF000C09306020E94BF058091FC018D7E809307
:100D0000FC010E9495028091B00083628093B00044
:100D1000C093B1001092B40061E083E00E94C00271
:100D2000D3E0D0930302D09304020E94BF058091C8
:100D3000FC018F758093FC010E94950284B5836845
:100D400084BD17BC61E086E00E94C002C09301022E
:100D5000D09302020E94BF058091FC018E7B80939C
:100D6000FC010E94950284B5836284BD18BC61E0D9
:100D700085E00E94C0028091FB018C30A8F491E0D4
:100D8000980F9093FB018093FE0190E0FC01EE0F21
:100D9000FF1FE80FF91FE952FE4F88EB9BE092839B
:100DA0008183DF91CF9108958FEF8093FE01F9CF7A
:100DB000789484B5826084BD84B5816084BD85B536
:100DC000826085BD85B5816085BD80916E00816042
:100DD00080936E00109281008091810082608093E8
:100DE00081008091810081608093810080918000EA
:100DF0008160809380008091B10084608093B10015
:100E00008091B00081608093B00080917A0084600E
:100E100080937A0080917A00826080937A0080913A
:100E20007A00816080937A0080917A008068809354
:100E30007A001092C100E0914A01F0914B0182E0EA
:100E40008083E0914601F09147011082E0914801D2
:100E5000F09149018FEC808310925201E0914E0194
:100E6000F0914F0186E08083E0914C01F0914D01BB
:100E7000808180618083E0914C01F0914D018081FF
:100E800088608083E0914C01F0914D018081806801
:100E90008083E0914C01F0914D0180818F7D8083B2
:100EA0008091FE018C3008F051C061E08AE00E9420
:100EB000C0028091FE01282F30E0F901EE0FFF1FE4
:100EC000E20FF31FE952FE4F9081907C9A6090836D
:100ED0001092FF01109200022CE0622F0E94180A6B
:100EE000829FB001112430E020E0AB01420F531F7C
:100EF000FA01EE0FFF1FE40FF51FE952FE4F90813C
:100F000096FD16C02F5F3F4F2C30310571F78111D0
:100F10000FC01092800082E08093810010928500C3
:100F200010928400B19A80916F00826080936F006C
:100F3000E091FE018E2F90E0FC01EE0FFF1FE80F05
:100F4000F91FE952FE4F8081806480838AE590E03A
:100F50009093390180933801C0913801D0913901C3
:100F6000C53BD1057CF4CE010E948C006FE070E09F
:100F700080E090E00E9416032196D0933901C0933F
:100F80003801EACF84EB90E09093390180933801E7
:100F9000C0913801D0913901D7FD0FC0CE010E9418
:100FA0008C006FE070E080E090E00E9416032197D3
:100FB000D0933901C0933801EBCF109239011092D0
:100FC0003801C0913801D0913901CB35D1057CF47D
:100FD000CE010E948C006FE070E080E090E00E9403
:100FE00016032196D0933901C0933801EACF60E00F
:100FF00080E10E94C00260E081E10E94C0028BE0BB
:10100000282E312C93E2892E912C29E3422E512C4B
:10101000612C712C30E0A32E30E0B32E62E370E03F
:1010200080E090E00E941603E0911302F091140218
:10103000808190910D02892B8083E0910F02F091C5
:101040001002908180910D02809589238083C101D7
:101050000197F1F7E0910F02F091100280819091D9
:101060000D02892B8083C4010197F1F7E0910F02F3
:10107000F0911002908180910D02809589238083E8
:10108000E0911302F0911402908180910D028095FD
:1010900089238083E0911102F09112028081909166
:1010A0000E02892309F460C090E080E0BC0190E06A
:1010B00080E0A30192010E94E70969017A0185E1BC
:1010C00091E00E94B9034AE0C701B6010E94C6033D
:1010D00082E191E00E94B90380E10E943E028C010E
:1010E00081E10E943E02EC018EE191E00E94B90391
:1010F000C8010E940A0484E291E00E94B903CE0173
:101100000E940A040130110509F0A0C0C6010A9727
:10111000459708F0D5C0C130D10509F01AC168E77C
:1011200087E092E00E94480361E087E092E00E943D
:101130005F0368E785E092E00E94480361E085E094
:1011400092E00E945F0368E783E092E00E94480318
:1011500061E083E092E00E945F0368E781E092E053
:101160000E94480361E09CC00E94F102AB01BC01F7
:101170008091150290911602B0E0A0E08855994E3A
:10118000AF4FBF4F840F951FA61FB71F8093170245
:1011900090931802A0931902B0931A02E0911102E1
:1011A000F0911202808190910E02892381F40E94B5
:1011B000F10200911702109118022091190230914A
:1011C0001A02061717072807390740F76DCF0E9444
:1011D000F1022091150230911602620F731F811DDA
:1011E000911D6093170270931802809319029093D7
:1011F0001A02E0911102F0911202808190910E0288
:10120000892381F00E94F1020091170210911802C7
:101210002091190230911A0206171707280739077B
:1012200040F742CF0E94F102209115023091160240
:10123000A901455051092091170230911802FA0175
:10124000E21BF30BCF01860F971F30CF012B09F064
:1012500083C0219709F080C068EC87E092E00E948B
:10126000480361E087E092E00E945F0368EC85E05C
:1012700092E00E94480361E085E092E00E945F03F3
:1012800064E683E092E00E94480362E083E092E03B
:101290000E945F0364E681E092E00E94480362E0FE
:1012A00081E092E00E945F03A114B10409F4B6CE7C
:1012B0000E947201882309F4B1CE0E940000AECED4
:1012C000209701F564E687E092E00E94480362E01F
:1012D00087E092E00E945F0364E685E092E00E946E
:1012E000480362E085E092E00E945F0368EC83E0DF
:1012F00092E00E94480361E083E092E00E945F0375
:1013000068EC2CCF219741F560E087E092E00E94E5
:10131000480364E087E092E00E945F0360E085E0BC
:1013200092E00E94480364E085E092E00E945F033F
:1013300060E083E092E00E94480364E083E092E092
:101340000E945F0360E081E092E00E94480364E055
:10135000A7CFCD2B09F4B6CFF2E0CF1AD10888E0A1
:10136000C816D10408F0A0CFCFCF052E97FB1EF4EE
:1013700000940E94CC0957FD07D00E94E70907FCA2
:1013800003D04EF40C94CC0950954095309521959E
:101390003F4F4F4F5F4F08959095809570956195A1
:1013A0007F4F8F4F9F4F08950E94090AA59F900D70
:1013B000B49F900DA49F800D911D11240895B7FF37
:1013C0000C94D4090E94D409821B930B0895A1E2C6
:1013D0001A2EAA1BBB1BFD010DC0AA1FBB1FEE1FAF
:1013E000FF1FA217B307E407F50720F0A21BB30BFA
:1013F000E40BF50B661F771F881F991F1A9469F776
:1014000060957095809590959B01AC01BD01CF01D1
:101410000895A29FB001B39FC001A39F700D811DCD
:101420001124911DB29F700D811D1124911D0895ED
:10143000991B79E004C0991F961708F0961B881F26
:101440007A95C9F780950895EE0FFF1F0590F491E6
:08145000E02D0994F894FFCF90
:1014580000000000A80108013501F50166014401FA
:1014680058010D0A0064697374616E63650052491E
:0A147800474854004C45465400005C
:00000001FF
